:100000000C944A010C9467010C9467010C946701ED
:100010000C9467010C9467010C9467010C946701C0
:100020000C9467010C9467010C94D6050C9467013D
:100030000C9467010C9467010C9467010C946701A0
:100040000C9467010C9467010C9467010C94670190
:100050000C9467010500000000000500005F00002F
:1000600005000700070005147F147F1405242A7F6C
:100070002A120523130864620536495620500508E4
:100080000703000005001C224100050041221C005E
:100090000514083E08140508083E08080500B0705D
:1000A0000000050808080808050060600000052039
:1000B00010080402053E5149453E0500427F4000BC
:1000C000057249494946052141494D330518141225
:1000D0007F10052745454539053C4A4949310541C9
:1000E0002111090705364949493605464949291E5E
:1000F000050000140000050040340000050814222B
:1001000041000514141414140541221408000502BA
:1001100001590906053E415D594E057C1211127CBC
:10012000057F49494936053E41414122057F41410C
:10013000413E057F49494949057F09090909053EAD
:1001400041415173057F0808087F0500417F410048
:10015000052040413F01057F08142241057F4040B2
:100160004040057F020C027F057F0408107F053E9A
:100170004141413E057F09090906053E4151215E85
:10018000057F091929460526494949320501017F9C
:100190000101053F4040403F051F2040201F053F13
:1001A0004038403F056314081463050304780403D2
:1001B00005615149454305007F414100050204089E
:1001C0001020050041417F000504020102040540A2
:1001D0004040404005070B00000005205454784083
:1001E000057F2844443805384444442805384444AD
:1001F000287F0538545454180500087E0902051854
:10020000A4A49C78057F080404780500447D400080
:10021000052040403D00057F102844000500417F37
:100220004000057C04780478057C080404780538CF
:100230004444443805FC182424180518242418FCC8
:10024000057C080404080548545454240504043F5C
:100250004424053C4040207C051C2040201C053CDB
:100260004030403C054428102844054C9090907C38
:10027000054464544C4405000836410005000077ED
:1002800000000500413608000504020408040500CA
:100290007F417F0011241FBECFE5D8E0DEBFCDBF78
:1002A00012E0A0E6B0E0E4E8F8E202C005900D92AA
:1002B000A03BB107D9F727E0A0EBB2E001C01D9247
:1002C000A83DB207E1F70E940D060C9440140C946F
:1002D0000000FC018081823379F581818053843074
:1002E00058F5228180ED820F8A3030F5938180EDC0
:1002F000890F8A3008F5848130ED380F3A30E0F408
:10030000203321F4903311F48033B1F0258180ED56
:10031000820F8A3088F4868190ED980F9A3060F4CD
:10032000978130ED390F3A3038F4203339F4803387
:1003300029F481E0903319F480E0089581E0089574
:100340005D9BFECF8CB90895009719F4C698C59AA5
:100350000895019719F4C598C69A0895C59AFCCFD7
:100360009091C506903410F48093C50608952F929D
:100370003F924F925F926F927F928F929F92AF9235
:10038000BF92CF92DF92EF92FF920F931F93CF9382
:10039000DF9300D000D000D01F92CDB7DEB7209100
:1003A000C4062E83B090C50680520091CC062091E1
:1003B000CA06029F900111242F5F3F4F482F42032E
:1003C0006001439FD00C1124E091C806F091C9064A
:1003D000EC0DFD1D54915F838E81850F87FF04C056
:1003E00060E87E81671B6F838B2D86958695869549
:1003F000902F980F993010F008E0081B8B2D877014
:10040000A82E76019B2C10E088E090E0DC01AA1970
:10041000B109BD83AC83101373C0812F880F880F7F
:10042000880F8B0D123008F448C0EE81E7FFE0938F
:10043000C4060E94B0019090C406E091C506E695FE
:10044000E695E6952E2F30E04091CC0650E0C10EA7
:10045000D11CE091C806F091C906EC0DFD1DD12C10
:1004600068E0969EC00111248C0100551D4F020FBB
:10047000131F68E070E07B01EA18F108BF81DB120E
:10048000B9C06091CD067091CE0640E0611571054E
:1004900051F0FC01E055FD4FE20FF31F4081613048
:1004A000710509F04095A1E0A90DA093C4068055FF
:1004B0009D4FFC01E20FF31F4083EE81EF5FFF8150
:1004C000FE0FF983F7FFF093C4068B2D27960FB626
:1004D000F894DEBF0FBECDBFDF91CF911F910F917A
:1004E000FF90EF90DF90CF90BF90AF909F908F9054
:1004F0007F906F905F904F903F902F900C94B00141
:10050000BE81B7FFB093C406892D0E94B0013701A8
:10051000EFEF6E1A7E0A2090C8063090C906409010
:10052000CC06512C2091CD063091CE063A832983FA
:100530002091C50626952695269530E04091C40663
:100540004B83A101460D571D812C8B81880D7F8126
:1005500087121CC08093C406A8E08A9FC0011124A2
:1005600049815A81452B09F443C0FC01E055FD4FF8
:10057000E20FF31F408180559D4F280F391FD9018D
:100580004C93B8E09B0E1F5F730145CFFA01649155
:100590000A2C01C0660F0A94EAF7E62F112371F0C6
:1005A000F101EE0DFF1DE491F0E00C8002C0F59525
:1005B000E7950A94E2F7E62BE40CF51CF8E08F9F30
:1005C000C001112469817A816130710539F4DC013F
:1005D000A055BD4FA20FB31F6C91E62B80559D4FC8
:1005E000DC01A20FB31FEC938394440D551DADCFD6
:1005F00040E0C1CF649170E00E2C02C07595679504
:100600000A94E2F7D8017C91672B6C93D394E40FA2
:10061000F51F34CFCF93DF93EC018991811103C093
:10062000DF91CF9108952091C4069091CA06290FB9
:100630003327331F203831059CF70E94B701EDCFD7
:100640008091C6069091C7062FEF019709F420E02C
:1006500080E0E82FE695E695E695F0E0E055FD4F61
:1006600090E020839F5F38969038D9F7885F803478
:1006700081F70895CF93DF93EC018991811108C030
:100680008DE00E94A0018AE0DF91CF910C94A0013F
:100690000E94A0012FEF80E792E02150804090401F
:1006A000E1F700C00000E9CF979A2FEF84E39CE0C8
:1006B000215080409040E1F700C0000097980895D5
:1006C000979A2FEF8EE994E2215080409040E1F715
:1006D00000C0000097980895CF9370E060E0E1E0DB
:1006E000F0E08BB38E618BBB2BB3DB016F5F7F4F71
:1006F000CF01062E01C0880F0A94EAF78095822365
:100700008BBB2FEF81EE94E0215080409040E1F7C9
:1007100000C0000049B34295469547704730A9F1A3
:1007200030E020E050E0CA01022E02C09595879586
:100730000A94E2F780FD24C0CFEF80E792E0C15039
:1007400080409040E1F700C0000089B390E0C5E030
:1007500095958795CA95E1F7022E02C095958795E4
:100760000A94E2F780FD0CC0FD01EE0FFF1FEA0FB7
:10077000FB1FE05AFF4FE20FF31F8081CF910895D6
:100780002F5F3F4F2330310571F66430710509F05A
:10079000A8CF80E0F3CF0E94A401A798C298C39A83
:1007A000C49885E08A95F1F70000C49A95E09A957F
:1007B000F1F7000083B3C4989AE29A95F1F700C06C
:1007C00087FDF3CFC398A79A08950F931F9380FFD7
:1007D00058C0A89A482F50E070E060E08A019B0161
:1007E000369527951795079500FF4DC0A99A8A0160
:1007F0009B01B2E03695279517950795BA95D1F7E5
:1008000000FF43C0AA9A8A019B01A3E03695279571
:1008100017950795AA95D1F700FF39C0AB9A8A01C1
:100820009B01F4E03695279517950795FA95D1F732
:1008300000FF2FC0AC9A8A019B01E5E03695279511
:1008400017950795EA95D1F700FF25C0AD9A96E078
:1008500076956795579547959A95D1F740FF1DC0B6
:10086000AE9A87FF1CC0AF9AC49A85E08A95F1F7CB
:100870000000C49885E08A95F1F700001F910F9160
:100880000895A898A7CFA998B2CFAA98BCCFAB9843
:10089000C6CFAC98D0CFAD98DACFAE98E2CFAF98B4
:1008A000E3CF1F93CF93DF93182FEB01CB0162307F
:1008B000710531F490E080E00E94CB0381E090E08C
:1008C0000E94CB03CE010E94A401C298C398812F3D
:1008D000DF91CF911F910C94E503DF92EF92FF928D
:1008E0000F931F93CF93DF93C0E04FE7D42E109266
:1008F000C40670E060E080E40E945104C093C50625
:1009000062E070E08C2F869586958695886B0E94B4
:10091000510410E000E0EE24E394F12C003410F4D4
:10092000F12CE12CE091C506E695E695E695C80127
:1009300023E0880F991F2A95E1F780559D4FE80F16
:10094000F92FF11DD081C7010E94CB03C7010E947E
:10095000A401C29AC3988091C6069091C7060197D8
:1009600009F0D0958D2F0E94E5038091C4068F5F1A
:100970008093C4068034A9F461E070E00E945104C1
:100980000F5F1F4F0038110531F6C85FC03409F002
:10099000AECFDF91CF911F910F91FF90EF90DF903D
:1009A000089587FFEDCFD092C406EACFCF930E947F
:1009B0002003E091D407F091D507E730F10508F066
:1009C00039C0EB51FB4F0C943711EC042605370569
:1009D0005A0562056A057205C1E0C093C40681E04C
:1009E0000E94B0018CE690E00E940A03C093C40606
:1009F00089E00E94B00189E790E00E940A03C09359
:100A0000C40681E10E94B00188E890E00E940A03D8
:100A1000C093C40689E10E94B00186E990E00E947B
:100A20000A03C093C40681E20E94B00186EA90E006
:100A30000E940A030E946D048091D4079091D5070B
:100A40009093D7078093D607CF9108951092C4064C
:100A500080E00E94B00188EB90E00E940A031092AF
:100A6000C40688E00E94B00182EC90E0E1CF1092D1
:100A7000C40680E00E94B00182ED90E00E940A036B
:100A80001092C40688E00E94B0018BED90E00E94B5
:100A90000A031092C40680E10E94B00189EE90E042
:100AA0000E940A031092C40688E10E94B0018AEFF6
:100AB00090E0BECF1092C40680E00E94B00181E0B9
:100AC00091E0B6CF1092C40680E00E94B00182E1AE
:100AD00091E0AECF1092C40680E00E94B00182E2A5
:100AE00091E0A6CF1092C40680E00E94B00182E39C
:100AF00091E09ECFAF92BF92CF92DF92EF92FF92A2
:100B00000F931F93CF93DF936091CF0690E080E027
:100B10000E944F0FC0E0EE24E394F12CDDE08091C1
:100B2000CF06C81758F0DF91CF911F910F91FF901A
:100B3000EF90DF90CF90BF90AF900895AC2EB12C86
:100B4000CD9FC00111249C012053394F6901C90177
:100B50000E946901811106C0F60110821186128679
:100B60001386148610E000E0F601E00FF11F6081AB
:100B7000C701800F911F0E944F0F0F5F1F4F08305A
:100B8000110591F7DA9DF001DB9DF00D1124E05382
:100B9000F94F4185528563857485C70108960E9487
:100BA0005C0F3CE0E30EF11CCF5FB9CF1F920F92B8
:100BB0000FB60F9211242F938F939F93AF93BF93F0
:100BC0008091B0069091B10601969093B106809302
:100BD000B006883E9340B8F08091BF069091C00661
:100BE000A091C106B091C2060196A11DB11D8093CE
:100BF000BF069093C006A093C106B093C2061092A0
:100C0000B1061092B006BF91AF919F918F912F9135
:100C10000F900FBE0F901F901895CF93DF93CDB715
:100C2000DEB76A970FB6F894DEBF0FBECDBF87E67A
:100C300089B910BC88E18AB986E080BD2FEF31EE1A
:100C400044E0215030404040E1F700C00000A09A4D
:100C5000A19AA29AA39AA49AA59AA69AA79ABD9A8B
:100C6000BE9ABA9ABC9ABB9ABF9AC298C398C498C3
:100C7000C7988FE19EE40197F1F700C00000C79A82
:100C80009FEFE0E7F2E09150E040F040E1F700C074
:100C9000000062E070E08FE30E94510462E070E0C7
:100CA00080EC0E9451041092C40680E00E94B001C2
:100CB00001E010E01093C7060093C6061092CC0620
:100CC0001092CB061092CA061092C5061092C40666
:100CD0002FEF31EE44E0215030404040E1F700C0BA
:100CE00000000E94200384E590E09093C906809361
:100CF000C80685E08093CA0688E08093CB0681E031
:100D00008093CC061093CE060093CD068093C40644
:100D10000E94B0010E946D048AB38E618ABB8BB3BE
:100D20008E618BBB8AB38F718ABB8BB3806E8BBB9A
:100D300080E487B987E886B9369A3699FECF84B1C0
:100D400095B18FEF93ECE9E081509040E040E1F7FE
:100D500000C00000B89AB9988CE083BF8EE38CBFC6
:100D600089B7826089BF78948F9AE0EDF6E01082AF
:100D700011861286138614863D9627E0E43DF2071D
:100D8000B1F790E080E00E94410F8093CF0685315B
:100D900010F01092CF06A090CF0600ED16E0B12C17
:100DA000CC24C394D12CBA105CC0979A2FEF33ECAB
:100DB00049E0215030404040E1F700C000009798E2
:100DC0008FEF93ECE9E081509040E040E1F700C004
:100DD0000000979AFFEF23EC39E0F15020403040BB
:100DE000E1F700C0000097984FEF83EC99E0415085
:100DF00080409040E1F700C00000979AEFEFF9E6DD
:100E000028E1E150F0402040E1F700C00000979851
:100E10000E94D6041A8E8E010F5F1F4F0E946C0332
:100E2000882309F4DBC7282F082E000C330B4A8DCA
:100E30004217130609F4D3C78A8F0E946C038823D4
:100E400009F423C42091D4073091D5072115310529
:100E500061F12230310509F439C58A3209F015C42F
:100E600037C5F12CE12CC6018E0D9F1D0E94410F4C
:100E7000F801EE0DFF1D80833FEFE31AF30A48E00F
:100E8000E416F10481F7F8011086C60108960E9465
:100E9000490FF8016187728783879487FCE0CF0E42
:100EA000D11CB394035F1F4F7ECF813309F091C2F1
:100EB00081E090E09093D5078093D4070E94D604F8
:100EC0006E0181E1C80ED11C89E0F60111928A956C
:100ED000E9F7FF24F394F092C3068091BF06909146
:100EE000C006A091C106B091C2068093BB06909344
:100EF000BC06A093BD06B093BE061092BA060E942F
:100F00002003F092C40681E00E94B00188EB90E0DB
:100F10000E940A030E946D04F12C60E1962EBB240E
:100F2000B394AA24A3948091C306882309F442C0F1
:100F30008091BF069091C006A091C106B091C206F3
:100F40004091BB065091BC066091BD067091BE06F3
:100F5000841B950BA60BB70B0A97A105B10550F1A1
:100F60000E942003FF24F394F092C40681E00E94C3
:100F7000B00185E491E00E940A03F092C40689E082
:100F80000E94B00180E591E00E940A030E946D0476
:100F90000E946003FFEF27EA31E6F1502040304025
:100FA000E1F700C00000F092BA061092D507109247
:100FB000D4076BC30E946C03E82EAA2009F469C011
:100FC0004091BF065091C0066091C1067091C20663
:100FD0008091B6069091B706A091B806B091B90677
:100FE000481759076A077B07B1F18091BF069091B6
:100FF000C006A091C106B091C2068093B606909338
:10100000B706A093B806B093B9068091BB0690913D
:10101000BC06A091BD06B091BE064091BF0650919E
:10102000C0066091C1067091C206865F841B8B303A
:1010300008F080E01F928F938AE591E09F938F9351
:101040001F929F921F930F930E945B110FB6F8940B
:10105000DEBF0FBECDBF0E942003B092C40681E068
:101060000E94B00188EB90E00E940A030E946D0488
:10107000B092C40688E00E94B001C6010E940A0333
:1010800037E03F1520F08BE691E00E940A030E94B2
:101090006D04A12CEE2009F446CF8091BF069091FB
:1010A000C006A091C106B091C2068093BB06909382
:1010B000BC06A093BD06B093BE068091BF0690917A
:1010C000C006A091C106B091C2060197A109B1095D
:1010D0008093B6069093B706A093B806B093B9066E
:1010E0004AE2E41216C01092C306FF2009F45DCF55
:1010F000FA94F601EF0DF11D1082B092C40688E05B
:101100000E94B0018DE691E00E940A030E946D04E6
:1011100008CF80ED8E0D8A30E8F587E08F1558F006
:1011200081E08F0DF601EF0DF11DE082F601E80F71
:10113000F11D1082F82E4091BF065091C0066091BB
:10114000C1067091C2068091B2069091B306A0913B
:10115000B406B091B506481759076A077B0781F0B6
:101160008091BF069091C006A091C106B091C206C1
:101170008093B2069093B306A093B406B093B506DD
:101180004FEF81EE94E0415080409040E1F700C085
:101190000000C7CE93E2E912CECFE8E0FE1601F1DF
:1011A0000E942003B092C40681E00E94B00186E74D
:1011B00091E00E940A03B092C40689E00E94B00147
:1011C00081E891E00E940A030E946D040E9460037E
:1011D000FFEF27EA31E6F15020403040E1F733C01D
:1011E000C6010E946901F82E882309F442C080904C
:1011F000CF0650EDE52E56E0F52EA12CA81069C0C3
:10120000F3E1FA1508F071C00E942003B092C40601
:1012100081E00E94B0018EE991E00E940A03B09241
:10122000C40689E00E94B00186EA91E00E940A03A8
:101230000E946D040E9460032FEF37EA41E62150BF
:1012400030404040E1F700C0000089E0F601119213
:101250008A95E9F70E942003B092C40681E00E94BB
:10126000B00188EB90E00E940A030E946D04F12C0B
:1012700058CE0E942003B092C40681E00E94B001C3
:101280008BE891E00E940A03B092C40689E00E94B4
:10129000B00186E991E00E940A030E946D040E9459
:1012A0006003FFEF27EA31E6F15020403040E1F7DC
:1012B00000C0000089E0F60111928A95E9F70E94CA
:1012C0002003B092C40681E00E94B00188EB90E058
:1012D0001BCFB701C6010E943D11FDE0EF0EF11CCE
:1012E000892B09F48BC5A39489CFFDE0AF9EC00183
:1012F00011249C012053394F7901B601C9010E9484
:101300004611F70110868091BF069091C006A0910A
:10131000C106B091C20681879287A387B487A39440
:10132000A092CF060E947A050E942003FF24F39426
:10133000F092C40681E00E94B0018EE690E00E9427
:101340000A03F092C40689E00E94B0018FEA91E09E
:101350000E940A030E946D04979AFFEF24E33CE089
:10136000F15020403040E1F700C0000097984FEF67
:1013700084E39CE0415080409040E1F700C00000D1
:10138000979AEFEFF4E32CE0E150F0402040E1F7D2
:1013900000C0000097983FEF44E38CE0315040409C
:1013A0008040E1F700C0000089E0F60111928A95C3
:1013B000E9F781E090E09093D5078093D407FFEFA1
:1013C00027EA31E6F15020403040E1F700C000004C
:1013D0005CC1823349F482E090E09093D50780931A
:1013E000D4070E94D60451C1833309F09FC084E022
:1013F00090E09093D5078093D4070E94D60480E4B0
:1014000087B90E942003FF24F394F092C40681E080
:101410000E94B00189EB91E00E940A03F092C40699
:1014200089E10E94B0018AEF90E00E940A030E94C5
:101430006D0426EC622E21E0722E30E1E32E4DEC9D
:10144000442E41E0542E89EB91E00E940A03F09271
:10145000C40689E10E94B0018AEF90E00E940A036D
:101460000E946C038A3209F4A0CD369A3699FECFD9
:10147000C4B0D5B0B60190E080E00E941A1020E020
:1014800030E44CE955E40E94A81020E030E040E848
:101490005AE30E94A8100E94EB0F90E080E00E94A7
:1014A0001A1020E030E040E251E40E94790F4B0135
:1014B0005C010E942003DF92CF927F926F921F9275
:1014C000EF921F930F930E945B11F092C40689E084
:1014D0000E94B001C8010E940A031F921F92C50119
:1014E000B4010E94EB0F7F936F935F924F921F9214
:1014F000EF921F930F930E945B11F092C40681E15B
:101500000E94B001C8010E940A030E946D04EFEF1F
:10151000F9E628E1E150F0402040E1F700C000008A
:101520000FB6F894DEBF0FBECDBF8DCF843309F068
:1015300023C185E090E09093D5078093D4070E9463
:10154000D6040E942003FF24F394F092C40681E0A5
:101550000E94B00189ED91E00E940A030E946D048F
:101560009FEFE3EDF0E39150E040F040E1F700C081
:10157000000084EE91E00E943A032FEF33ED40E348
:10158000215030404040E1F700C000008091CF067C
:101590001F928F9382EF91E09F938F931F9280E130
:1015A0008F931F930F930E945B110E942003F09270
:1015B000C40681E00E94B001C8010E940A030E9493
:1015C0006D04C8010E943A038FEF93EDE0E3815070
:1015D0009040E040E1F700C000000FB6F894DEBF95
:1015E0000FBECDBFD12CBDE0CB2E80E1B82EAA24FA
:1015F000A39495E0292E92E0392EF090CF06DF14C7
:1016000008F446C00E942003EE24E394E092C4064E
:1016100081E00E94B00185E192E00E940A03E0921D
:10162000C40689E00E94B00180E292E00E940A03B1
:101630001F92FF928CEF91E09F938F931F9280E116
:101640008F931F930F930E945B11E092C40681E178
:101650000E94B001C8010E940A030E946D0489E241
:1016600092E00E943A033FEF47EA81E63150404062
:101670008040E1F700C000001092D5071092D40717
:101680000FB6F894DEBF0FBECDBF0E94D604B3C321
:10169000DC9CC0011124FC01E053F94F7F01CF0114
:1016A0000E946901882309F465C00E942003FF920B
:1016B000EF922FEF31E03F932F931F92BF921F9332
:1016C0000F930E945B11C8010E943A03F701418405
:1016D000528463847484A092C40681E00E94B001A5
:1016E000C7010E940A03C301B2012CE330E040E0CD
:1016F00050E00E941511CA01B9012CE330E040E02E
:1017000050E00E9415117F936F93C301B20120E155
:101710003EE040E050E00E941511CA01B90128E105
:1017200030E040E050E00E9415117F936F933F92AC
:101730002F921F92BF921F930F930E945B11A09252
:10174000C40689E00E94B001C8010E940A030E94F9
:101750006D04C8010E943A038FEF93EDE0E38150DE
:101760009040E040E1F700C000000FB6F894DEBF03
:101770000FBECDBFD39441CF853309F086CF86E02D
:1017800090E09093D5078093D4070E94D6040E94DE
:1017900020031092C40680E00E94B00188EA90E025
:1017A0000E940A031092C40688E00E94B0018AEFEA
:1017B00090E00E940A030E946D04912CE2E08E2EBC
:1017C000F5E3AF2EF2E0BF2EABE4CA2EA2E0DA2E94
:1017D0000E946C038A3209F4E8CBC09A87E592E054
:1017E0000197F1F700C00000C09880EC97E2A9E0F3
:1017F000B0E0B19916C30197A109B109D1F7EE2460
:10180000EA94FE2C0E9420031092C40680E00E94FD
:10181000B00188EA90E00E940A03C701029602978D
:1018200008F44AC0FF92EF92BF92AF921F9280E1FC
:101830008F931F930F930E945B111092C40680E157
:101840000E94B001C8010E940A030FB6F894DEBFDF
:101850000FBECDBF1F929F92DF92CF921F9280E169
:101860008F931F930F930E945B111092C40688E11F
:101870000E94B001C8010E940A031092C40680E2CF
:101880000E94B0018AEF90E00E940A030E946D045A
:101890009FEFE7EAF1E69150E040F040E1F700C049
:1018A00000000FB6F894DEBF0FBECDBF91CF6EEF34
:1018B000E62EFF24FA94A6CF1092C40680E10E947F
:1018C000B0018FE392E00E940A03C4CF8A3229F468
:1018D0001092D5071092D40784CD813309F007C147
:1018E0007E0131E1E30EF11C89E0F70111928A9546
:1018F000E9F70E942003DD24D394D092C40681E04E
:101900000E94B00188EB90E00E940A03D092C406C6
:1019100080E10E94B00182EC90E00E940A030E94E4
:101920006D04D12CBB24B3940E946C03882391F1E5
:101930008A3239F482E090E09093D5078093D407FF
:10194000A4CE90ED980F9A3078F5F7E0FD1510F1E0
:10195000CC24C394CD0CF701ED0DF11D8083F7016C
:10196000EC0DF11D1082B092C40688E00E94B00117
:10197000B092C40688E00E94B001C7010E940A0329
:1019800028E0C21621F08BE691E00E940A030E9433
:101990006D04DC2C9FEFE9E6F8E19150E040F04067
:1019A000E1F700C00000C0CF8332A1F738E0D312C6
:1019B000F1CF7090CF0650EDC52E56E0D52EB12C4C
:1019C000A12CA714C8F00E942003FF24F394F092E6
:1019D000C40681E00E94B0018BE592E00E940A03F8
:1019E000F092C40689E00E94B00185E692E00E9470
:1019F0000A030E946D0471C045015C2C6D2C48E007
:101A000050E0B601C7010E944D114FEFA41AB40A6D
:101A1000EDE0CE0ED11C892BA1F60E942003FF24FD
:101A2000F394F092C40681E00E94B00184E592E054
:101A30000E940A03F092C40689E00E94B001852D3D
:101A4000962D0E940A03F092C40681E10E94B00123
:101A50008DE0889DF001899DF00D1124E053F94F30
:101A6000C184D284E384F484C701B6012CE330E05E
:101A700040E050E00E941511CA01B9012CE330E0AA
:101A800040E050E00E9415117F936F93C701B601AB
:101A900020E13EE040E050E00E941511CA01B9018A
:101AA00028E130E040E050E00E9415117F936F93F1
:101AB00085E092E09F938F931F9280E18F931F9315
:101AC0000F930E945B11C8010E940A030E946D04DB
:101AD0000FB6F894DEBF0FBECDBF3FEF47EA81E6F9
:101AE000315040408040E1F700C0000023CF8233F6
:101AF00009F0A8C08091CF0681119AC00E942003EE
:101B000081E08093C4060E94B0014DE6E42E42E0DD
:101B1000F42EF701849181110CC00E946D040E9483
:101B20005403FFEF23ED30E3F15020403040E1F764
:101B30004DCCFFEFEF1AFF0A2091C4069091CA0620
:101B4000290F3327331F203831053CF70E94B70196
:101B5000E0CF989CC0011124FC01E053F94F7F01B4
:101B6000CF010E946901882309F45BC00E94200311
:101B70001092C40680E00E94B0018EEB90E00E94BB
:101B80000A03C7010E940A03F70141845284638457
:101B90007484C301B2012CE330E040E050E00E94C5
:101BA0001511CA01B9012CE330E040E050E00E9479
:101BB00015117F936F93C301B20120E13EE040E035
:101BC00050E00E941511CA01B90128E130E040E05F
:101BD00050E00E9415117F936F93DF92CF921F9276
:101BE0003F921F930F930E945B111092C40680E1F5
:101BF0000E94B00181E892E00E940A03C8010E949D
:101C00000A030E946D04FFEF29E638E1F1502040FD
:101C10003040E1F700C000000FB6F894DEBF0FBE01
:101C2000CDBF93948091CF06981608F492CF2DCD16
:101C3000912C9DE0892E2BE0C22E22E0D22E30E1A5
:101C4000332EF0CF833309F020CD89E0F8011192D3
:101C50008A95E9F70E942003FF24F394F092C406CA
:101C600081E00E94B0018BEE90E00E940A03F092A6
:101C7000C40680E10E94B00182EC90E00E940A0359
:101C80000E946D04F12CDD24D3940E946C03882300
:101C900039F18A3209F44ECE90ED980F9A3050F512
:101CA000F7E0FF15E8F0EE24E394EF0CF801EF0DF8
:101CB000F11D8083F801EE0DF11D1082D092C40653
:101CC00088E00E94B001C8010E940A0328E0E216E1
:101CD00021F08BE691E00E940A030E946D04FE2C25
:101CE0008FEF99E6E8E181509040E040E1F700C0D5
:101CF0000000CBCF8332A1F738E0F312F1CFC090D0
:101D0000CF0680EDE82E86E0F82ED12CDC1015C031
:101D10000E94200381E08093C4060E94B00180E904
:101D200092E00E940A030E946D042FEF3BE742E914
:101D3000215030404040E1F7D7CEB701C8010E94A2
:101D40003D114DE0E40EF11C892B09F045C08C2DAE
:101D50008150990B9C014DE08D2D90E082179307E7
:101D60002CF1CA94C092CF060E947A050E942003EB
:101D7000FF24F394F092C40681E00E94B00182EF48
:101D800090E00E940A03F092C40689E00E94B0012C
:101D900087E892E00E940A030E946D049FEFEBE740
:101DA000F2E99150E040F040E1F79ECE489FD0012B
:101DB000499FB00D1124A053B94F0196489FF001DF
:101DC000499FF00D1124E053F94F842F01900D929B
:101DD0008A95E1F7D394C0CFD39498CF1A8E2091EF
:101DE000D6073091D7078091D4079091D50728174F
:101DF000390709F04ACC0E946D0410C80E942003E4
:101E0000B092C40681E00E94B0018EE992E00E9487
:101E10000A03B092C40689E00E94B00186EA92E00B
:101E2000D1C91FBC8EBC1DBC1CBC80EC97E2A9E0D4
:101E3000B0E0B19B0AC02CB53DB521363A4E08F052
:101E400036CD0197A109B109A1F76CB57DB590E038
:101E500080E01EBC6136FAEE7F078105910508F02F
:101E600026CD24E730E040E050E00E9415117901D2
:101E700024E0E216F10408F0C5CC93940E945403C8
:101E8000C1CCE199FECF9FBB8EBBE09A99278DB361
:101E90000895A6E1B0E044E050E00C946B0F262FCB
:101EA000E199FECF9FBB8EBB2DBB0FB6F894E29A93
:101EB000E19A0FBE01960895242F0E94500F252FFE
:101EC0000E94500F0C94640F0E944F0F272F0C9408
:101ED000500FDC01CB01FC01E199FECF06C0FFBB36
:101EE000EEBBE09A31960DB20D9241505040B8F7DA
:101EF00008950E948D0F0C946E100E94671058F088
:101F00000E94601040F029F45F3F29F00C945710B4
:101F100051110C94A2100C945D100E947F1068F374
:101F20009923B1F3552391F3951B550BBB27AA2792
:101F300062177307840738F09F5F5F4F220F331FCC
:101F4000441FAA1FA9F335D00E2E3AF0E0E832D094
:101F500091505040E695001CCAF72BD0FE2F29D097
:101F6000660F771F881FBB1F261737074807AB0769
:101F7000B0E809F0BB0B802DBF01FF2793585F4FDE
:101F80003AF09E3F510578F00C9457100C94A21033
:101F90005F3FE4F3983ED4F3869577956795B795C0
:101FA000F7959F5FC9F7880F911D9695879597F9CB
:101FB0000895E1E0660F771F881FBB1F6217730744
:101FC0008407BA0720F0621B730B840BBA0BEE1F59
:101FD00088F7E09508950E94871088F09F5798F041
:101FE000B92F9927B751B0F0E1F0660F771F881F1E
:101FF000991F1AF0BA95C9F714C0B13091F00E9438
:10200000A110B1E008950C94A110672F782F8827B4
:10201000B85F39F0B93FCCF3869577956795B3955E
:10202000D9F73EF490958095709561957F4F8F4FCD
:102030009F4F0895E89409C097FB3EF490958095D2
:10204000709561957F4F8F4F9F4F9923A9F0F92F7E
:1020500096E9BB279395F695879577956795B795FC
:10206000F111F8CFFAF4BB0F11F460FF1BC06F5FE2
:102070007F4F8F4F9F4F16C0882311F096E911C0F4
:10208000772321F09EE8872F762F05C0662371F015
:1020900096E8862F70E060E02AF09A95660F771F29
:1020A000881FDAF7880F9695879597F9089597F91D
:1020B0009F6780E870E060E008959FEF80EC0895EE
:1020C00000240A9416161706180609060895002417
:1020D0000A9412161306140605060895092E039491
:1020E000000C11F4882352F0BB0F40F4BF2B11F405
:1020F00060FF04C06F5F7F4F8F4F9F4F089557FD64
:102100009058440F551F59F05F3F71F04795880F65
:1021100097FB991F61F09F3F79F0879508951216FC
:1021200013061406551FF2CF4695F1DF08C01616A8
:1021300017061806991FF1CF869571056105089459
:102140000895E894BB2766277727CB0197F9089570
:102150000E94BB100C946E100E94601038F00E9418
:10216000671020F0952311F00C9457100C945D101B
:1021700011240C94A2100E947F1070F3959FC1F35C
:10218000950F50E0551F629FF001729FBB27F00D25
:10219000B11D639FAA27F00DB11DAA1F649F66277A
:1021A000B00DA11D661F829F2227B00DA11D621FC9
:1021B000739FB00DA11D621F839FA00D611D221F83
:1021C000749F3327A00D611D231F849F600D211D67
:1021D000822F762F6A2F11249F5750409AF0F1F0EA
:1021E00088234AF0EE0FFF1FBB1F661F771F881F53
:1021F00091505040A9F79E3F510580F00C94571024
:102200000C94A2105F3FE4F3983ED4F38695779543
:102210006795B795F795E7959F5FC1F7FE2B880FF8
:10222000911D9695879597F90895A1E21A2EAA1BFC
:10223000BB1BFD010DC0AA1FBB1FEE1FFF1FA21776
:10224000B307E407F50720F0A21BB30BE40BF50B73
:10225000661F771F881F991F1A9469F760957095FC
:10226000809590959B01AC01BD01CF010895EE0FC3
:10227000FF1F0590F491E02D0994FB01DC018D9185
:10228000019080190110D9F3990B0895FB01DC012D
:1022900001900D920020E1F70895FB01DC0141500F
:1022A000504030F08D910190801919F40020B9F759
:1022B000881B990B0895AEE0B0E0E1E6F1E10C94E3
:1022C00017140D891E898F89988D26E02C831A8317
:1022D000098397FF02C080E090E801979E838D8379
:1022E000AE01455E5F4F698D7A8DCE0101960E94E9
:1022F0008B114D815E8157FD0AC02F8138854217B1
:1023000053070CF49A01020F131FF80110822E9646
:10231000E4E00C943314ABE0B0E0E1E9F1E10C94BB
:1023200009147C013B018A01FC011782168283811A
:1023300081FFC8C1CE0101965C01F7019381F301D1
:1023400093FD859193FF81913F01882309F453C147
:10235000853239F493FD859193FF81913F01853258
:1023600029F4B70190E00E947B13E7CF912C212C38
:10237000312CFFE1F31538F08B3211F190F48032FB
:1023800009F1833229F137FC3CC020ED280F2A30B7
:1023900050F536FE20C08AE0989E200D1124922E22
:1023A00006C08D3291F0803371F7689430F8F301F4
:1023B00093FD859193FF81913F018111DACF21C077
:1023C000689431F8689432F8F2CF689433F8EFCF1C
:1023D000689434F8ECCFEAE02E9E200D1124222ED2
:1023E000689435F8E4CF8E3229F436FC04C1689441
:1023F00036F8DDCF8C3619F4689437F8D8CF8836A4
:10240000B1F2982F9F7D95549330E0F08336A1F17F
:102410008337C1F1833509F063C02801F2E04F0E24
:10242000511CF801C080D180692D70E036FC02C0DB
:102430006FEF7FEFC6010E9465134C01689437F877
:1024400082010AC00C5F1F4FFFE3F9838824839445
:10245000912C6501E89437F833FE2DC0522C81147D
:10246000910471F5552009F468CFB70180E290E03E
:102470000E947B135A94F6CFF801808189830E5F06
:102480001F4FE4CF2801F2E04F0E511CF801C0802D
:10249000D180692D70E036FC02C06FEF7FEFC6017E
:1024A0000E9470134C018201D5CFB70180E290E009
:1024B0000E947B132A942814190409F0B0F7CECF98
:1024C000F60137FC859137FE81916F01B70190E0ED
:1024D0000E947B1351105A94F1E08F1A9108BFCFDC
:1024E000843619F0893609F077C0F80137FE6BC0E1
:1024F00060817181828193810C5F1F4FF32DFF7684
:102500003F2E97FF09C090958095709561957F4FFC
:102510008F4F9F4F689437F82AE030E0A5010E9462
:10252000AB13C82ECA188C2C432C36FE0CC0E89472
:1025300040F8C91440F434FE05C032FC03C0F32D4A
:10254000FE7E4F2E892C44FE95C0FE01EC0DF11D40
:102550008081803309F087C0242D297E422E842D6E
:102560008870582E43FC95C040FE8FC09C2C82146E
:1025700018F42C0C922C981844FE91C0B70180E3FB
:1025800090E00E947B1342FE09C088E790E041FE84
:1025900002C088E590E0B7010E947B13C91408F4DB
:1025A0008AC0CA94D12C9FEFC91AD90ACA0CDB1C65
:1025B000F60182916F01B70190E00E947B13AC1489
:1025C000BD04B1F74FCF60817181072E000C880BDD
:1025D000990B0E5F1F4F92CFD32CE894D4F82AE0CA
:1025E00030E0853739F1232D297FD22E8F3601F146
:1025F00048F48835A9F0F701868197812B96E2E1AE
:102600000C942514803749F08837A9F7D4FE02C00E
:102610006894D2F820E130E00DC06894D4F8F6CF89
:1026200034FE03C0822F8660D82E20E132E002C043
:1026300028E030E0F801D7FE0FC06081718182810F
:1026400093810C5F1F4FA5010E94AB13C82ECA18BF
:102650003D2CE89437F867CF6081718190E080E08D
:102660000E5F1F4FF0CF42FC02C0839478CF83945B
:10267000839475CF842D867809F471CFF6CFB70196
:1026800080E290E00E947B1383948214C0F3512C6B
:1026900073CF522C5818821408F46ECFF8CF842DC3
:1026A000867809F47BCF8BE241FE80E247FC8DE225
:1026B000B70190E071CFB70180E390E00E947B13F7
:1026C0009A946CCF8FEF9FEF99CFFC0105906150EA
:1026D00070400110D8F7809590958E0F9F1F089538
:1026E000FC016150704001900110D8F780959095E1
:1026F0008E0F9F1F08950F931F93CF93DF93182F73
:10270000092FEB018B8181FD09C01FEF0FEF812F96
:10271000902FDF91CF911F910F91089582FF14C0E8
:102720002E813F818C819D81281739073CF4E881F7
:10273000F981CF0101969983888310838E819F81CF
:1027400001969F838E83E3CFE885F985812F0995D4
:10275000892BA1F3DACFFA01AA27283051F12031D1
:1027600081F1E8946F936E7F6E5F7F4F8F4F9F4F25
:10277000AF4FB1E03ED0B4E03CD0670F781F891F67
:102780009A1FA11D680F791F8A1F911DA11D6A0F35
:10279000711D811D911DA11D20D009F468943F91E8
:1027A0002AE0269F11243019305D3193DEF6CF01E7
:1027B0000895462F4770405D4193B3E00FD0C9F7AD
:1027C000F6CF462F4F70405D4A3318F0495D31FD1A
:1027D0004052419302D0A9F7EACFB4E0A69597956D
:1027E000879577956795BA95C9F700976105710543
:1027F00008959B01AC010A2E06945795479537958D
:102800002795BA95C9F7620F731F841F951FA01DE6
:1028100008952F923F924F925F926F927F928F9284
:102820009F92AF92BF92CF92DF92EF92FF920F935F
:102830001F93CF93DF93CDB7DEB7CA1BDB0B0FB669
:10284000F894DEBF0FBECDBF09942A883988488826
:102850005F846E847D848C849B84AA84B984C884BC
:10286000DF80EE80FD800C811B81AA81B981CE0FB3
:10287000D11D0FB6F894DEBF0FBECDBFED01089598
:04288000F894FFCFFA
:102884003132333435363738392A3023313A4174CA
:1028940074656E64616E636500323A537475646581
:1028A4006E74204D676D7400333A54656D706572B3
:1028B400617475726500343A52657472696576653F
:1028C400204461746100353A54726166666963201C
:1028D4004D6F6E69746F7200456E74657220494461
:1028E4003A002A3A4261636B20233A5375626D6958
:1028F4007400313A53656172636800323A5669650F
:102904007750726573656E7400333A52656D6F76F5
:10291400652053747564656E74002A3A4261636B72
:102924000050726573656E742053747564656E74BB
:10293400730054656D70204D6F6E69746F722E2E26
:102944002E0052657472696576696E6720446174FD
:10295400610054726166666963204D6F6E69746FBD
:10296400722E2E2E0054696D65204C696D697400B9
:102974004578636565646564210054696D65204C20
:10298400696D69743A2025642073005F002020205B
:102994002020202020004944206D75737420626536
:1029A4000038206469676974732100496E76616C2C
:1029B400696420494400466F726D617421004D6161
:1029C40078696D756D0052656163686564210052B4
:1029D40065636F72646564210054656D706572612E
:1029E400747572653A004144433A25750054656D27
:1029F400703A25642E2564430053656E64696E67DE
:102A04002E2E2E003D3D3D205354415254203D3D39
:102A14003D0053747564656E74733A2025640049EF
:102A2400443A25730054696D653A20253032753A6D
:102A34002530327500446174612053656E74210041
:102A44005265636F7264733A003D3D3D20454E44C8
:102A5400203D3D3D00446973743A2575206D004E58
:102A64006F204F62737461636C6500436F756E749D
:102A74003A257500466F756E643A004E6F205265B4
:102A8400636F72640045786973747321004E6F201C
:102A940053747564656E74732050726573656E74D7
:102AA4000054696D653A0052656D6F766564210066
:102AB4004944206E6F7420666F756E642100416C0A
:102AC40072656164790050726573656E74210000EB
:00000001FF
